S01D0000456C6563747269635F57617465725F4865617465722E73726563C2
S11300000C942A000C9447000C9447000C9447006D
S11300100C9447000C9447000C9447000C94470040
S11300200C9447000C9447000C9484050C945D05D3
S11300300C9447000C9447000C9447000C94470020
S11300400C9461040C9447000C9447000C944700F2
S11300500C94470011241FBECFE5D8E0DEBFCDBF0E
S113006010E0A0E6B0E0E4E1F1E102C005900D92F9
S1130070A639B107D9F720E0A6E9B0E001C01D9286
S1130080AA3AB207E1F70E947D000C9488080C9408
S113009000008091A2008F5F8093A200809197005E
S11300A0813079F480919F009091A0000196909303
S11300B0A00080939F0080919E008F5F80939E009C
S11300C00895809196008130B9F480919B0081302D
S11300D031F480919E008F5F80939E0008958091FB
S11300E09A00813049F4809198009091990001968A
S11300F090939900809398000895CF93DF93CDB7A0
S1130100DEB7A9970FB6F894DEBF0FBECDBF0E942D
S113011081030E944A040E94780311E004C0812FE5
S11301200E9497031F5F1330D0F30E9489030E943B
S11301306A0311E004C0812F0E9423041F5F14305E
S1130140D0F311E004C0812F0E94BF031F5F13305E
S1130150D0F30E94590489EF0E94560489E490E088
S11301600E945C048CE389A76CE380E090E00E9429
S11301707B0361E086E00E94F50362E080E00E9478
S1130180F503C12CD12C760100E016E08091960095
S11301908111EBC062E00E94AF0380E00E948603FD
S11301A0BC0180E090E00E944C0720E030E040E297
S11301B050E40E94DA0720E030E040E251E40E947B
S11301C0A4060E9416076B017C0161E080E00E9496
S11301D0AF0380E00E94730380E00E9492031092B8
S11301E09B0010929C0010929A0081E00E943B04B4
S11301F081115BC08091970081110BC081E08093D5
S113020097000E944D0481E00E943B048823D9F3A7
S113021037C0011119C0612F660F862F880F880F10
S1130220680F6B5F69A780E090E00E947B0381E028
S11302300E943B048823D9F3BE01675D7F4F80E0B1
S113024090E00E947E031CC00530D1F41730C1F049
S113025061E0610F660F862F880F880F680F69A70A
S113026080E090E00E947B0381E00E943B048823AD
S1130270D9F3BE01675D7F4F80E090E00E947E036A
S113028099A51DEC919F112D11241695169516957F
S1130290212F220F822F880F880F820F092F081B0E
S11302A01092A00010929F0060C082E00E943B0464
S11302B081115BC08091970081110BC081E0809314
S11302C097000E944D0482E00E943B048823D9F3E6
S11302D039C00530D1F41330C1F0612F660F862F79
S11302E0880F880F680F69A780E090E00E947B0365
S11302F082E00E943B048823D9F3BE01675D7F4FEF
S113030080E090E00E947E031DC001111BC01330E9
S1130310C9F06FEF610F660F862F880F880F680F83
S11303206B5F69A780E090E00E947B0382E00E94FB
S11303303B048823D9F3BE01675D7F4F80E090E0E2
S11303400E947E0309A51DEC019F112D1124169511
S113035016951695912F990F892F880F880F890F5D
S1130360081B1092A00010929F0083E00E943B049F
S113037081111BC0809196008F5F8093960082301C
S113038019F4109296000CC0813051F40E94530469
S11303900E944D04109297001092A00010929F00AA
S11303A083E00E943B048823D9F38091A200893121
S11303B009F05AC0A090A100B12C80E00E948603ED
S11303C0BC0180E090E00E944C0720E030E040E275
S11303D050E40E94DA0720E030E040E251E40E9459
S11303E0A406AA0CBB1CAA0CBB1C21E030E02C0FF9
S11303F03D1FA20EB31E0E941607F5016083718390
S1130400828393838091A1008F5F8093A1008A30BF
S113041049F549815A816B817C8181E015C0E82FBF
S1130420F0E0EE0FFF1FEE0FFF1F21E030E02C0F76
S11304303D1FE20FF31FC080D180E280F3804C0D9A
S11304405D1D6E1D7F1D8F5F8A3048F3CB01BA019D
S11304502AE030E040E050E00E94470869017A0158
S11304601092A1001092A20080919F009091A00090
S1130470823E944069F41092970081E08093960044
S11304801092A00010929F000E9453040E944D04F9
S113049080919E008D3789F5809197008130F9F421
S11304A080919D0081110EC061E0812F0E94F503AF
S11304B062E0802F0E94F50380919D008F5F8093FE
S11304C09D0019C08130B9F461E08AE00E94F5030F
S11304D062E08AE00E94F50310929D000CC08091B6
S11304E09B00813041F480919600813021F461E0D9
S11304F082E00E94AF0310929E0080919C008130A4
S113050039F480919600813019F461E00E94AF03C0
S1130510809198009091990080369A4E31F410920F
S11305209600109299001092980080919600811183
S113053020C08091970081111CC099A51DEC919F4A
S1130540112D1124169516951695212F220F822F01
S1130550880F880F820F092F081B61E0812F0E94EA
S1130560F50362E0802F0E94F5030E9453040E9469
S1130570500480919600813009F008CE62E00E9418
S1130580AF03C701B6012AE030E040E050E00E942A
S11305904708122F062FF4E6CF16D104E104F10424
S11305A014F009E019E061E0812F0E94F50362E094
S11305B0802F0E94F50389A590E0AC014B5F5F4F4B
S11305C0052E000C660B770BC416D506E606F70657
S11305D00CF54C0125E0821A9108092C000CAA089C
S11305E0BB088C149D04AE04BF04A4F420919C00A9
S11305F0211110C020919B0021110CC020919A0060
S1130600211108C081E080939A0010929900109201
S11306109800BCCDC416D506E606F70621F4209151
S11306209B00213089F020919C00213019F54C0168
S113063035E0831A9108092C000CAA08BB08C814D9
S1130640D904EA04FB04B1F461E080E00E94AF0342
S113065080E00E94730380E00E94920310929B004A
S113066010929C0081E080939A001092990010925D
S113067098008CCD0597092E000CAA0BBB0BC8164D
S1130680D906EA06FB0684F480E00E94730381E045
S11306900E94920381E080939B0010929C00109230
S11306A099001092980072CD4C155D056E057F057A
S11306B00CF06CCD81E00E94730380E00E949203F1
S11306C081E080939C0010929B00109299001092FC
S11306D098005CCD61E08CE10E94AE0460E08CE1A6
S11306E00E94EA040895682F8CE10E94EA040895A8
S11306F00E94CB0508950E94450608950E94720643
S113070008950E9488040E94AA0408950E949804EF
S1130710089561E08DE10E94AE0460E08DE10E94E5
S1130720EA040895682F8DE10E94EA040895CF93A6
S1130730DF93833070F48150C82FD0E0C05ADF4F6C
S113074061E088810E94AE0460E088810E94EA042E
S113075003C083E08093A300DF91CF9108956330B9
S113076050F4E62F682FE150F0E0E05AFF4F80810B
S11307700E94EA04089583E08093A30008950F93F0
S11307801F93CF93DF93833040F50FEF080F102FA3
S1130790110F110F110F101B0CC0E901CE59DF4FBF
S11307A061E088810E94AE0460E088810E94EA04CE
S11307B01F5F212F30E0402F50E04F5F5F4FBA01A1
S11307C0660F771F660F771F660F771FCB01841B99
S11307D0950B821793070CF703C083E08093A30063
S11307E0DF91CF911F910F9108951F93CF93DF93C2
S11307F0633010F5182F6150D62FDD0FDD0FDD0F9C
S1130800D61BC0E016C0E12FF0E0E059FF4F608135
S113081070E00C2E02C0759567950A94E2F761703A
S1130820ED2FF0E0EE59FF4F80810E94EA04DF5F74
S1130830CF5FC73040F303C083E08093A300DF9110
S1130840CF911F910895CF93DF93843070F481503A
S1130850C82FD0E0C558DF4F60E088810E94AE0405
S113086061E088810E94EA0403C083E08093A300CE
S1130870DF91CF910895843048F48150E82FF0E05F
S1130880E558FF4F80810E944205089583E08093DC
S1130890A30008950E94AB0508950E94B50508952C
S11308A00E94BC0508950E94C00508950E94C205D7
S11308B008950E94C40508959093A9008093A80008
S11308C008951F920F920FB60F9211242F933F9306
S11308D04F935F936F937F938F939F93AF93BF9344
S11308E0EF93FF93E091A400F091A5000995FF9187
S11308F0EF91BF91AF919F918F917F916F915F9194
S11309004F913F912F910F900FBE0F901F9018950C
S113091087B1806487B987B1806887B987B18F7DD3
S113092087B986B1806886B986B1866086B908952C
S113093097B1907E97B997B1892B87B986B18064B6
S113094086B93699FECF24B185B190E0982F8827D7
S1130950822B089586B1806886B908958032C8F5DF
S1130960662319F06130E1F00895E82FE695E695E5
S1130970E695F0E0EE0FFF1FE257FF4F0190F08184
S1130980E02D4081877021E030E0B90102C0660F9C
S1130990771F8A95E2F7CB0180958423808308959D
S11309A0E82FE695E695E695F0E0EE0FFF1FE25797
S11309B0FF4F0190F081E02D4081877021E030E00D
S11309C0B90102C0660F771F8A95E2F7CB01842B29
S11309D080830895803208F054C06130F9F018F033
S11309E06230B1F10895E82FE695E695E695F0E0DA
S11309F0EE0FFF1FEA57FF4F0190F081E02D408179
S1130A00877021E030E0B90102C0660F771F8A9534
S1130A10E2F7CB018095842380830895E82FE6953F
S1130A20E695E695F0E0EE0FFF1FEA57FF4F0190C1
S1130A30F081E02D4081877021E030E0B90102C0EF
S1130A40660F771F8A95E2F7CB01842B8083089584
S1130A50E82FE695E695E695F0E0EE0FFF1FEA57DE
S1130A60FF4F0190F081E02D4081877021E030E05C
S1130A70B90102C0660F771F8A95E2F7CB0184277C
S1130A80808308958032C0F4E82FE695E695E695D4
S1130A90F0E0EE0FFF1FE258FF4F0190F081E02DD0
S1130AA09081282F2770892F90E002C09595879513
S1130AB02A95E2F78170089508951F920F920FB658
S1130AC00F9211242F933F934F935F936F937F93D0
S1130AD08F939F93AF93BF93EF93FF93E091A600FF
S1130AE0F091A7000995FF91EF91BF91AF919F916C
S1130AF08F917F916F915F914F913F912F910F90C3
S1130B000FBE0F901F9018951F920F920FB60F9261
S1130B1011242F933F934F935F936F937F938F93FE
S1130B209F93AF93BF93EF93FF93E091A800F0914D
S1130B30A9000995FF91EF91BF91AF919F918F917A
S1130B407F916F915F914F913F912F910F900FBEC5
S1130B500F901F90189513BE83B78F7B83BF83B705
S1130B60886083BF83B783BF089583B7887F83BFBB
S1130B7083B7846083BF089583B7887F83BF089554
S1130B8012BE08958CBF08958FB780688FBF89B750
S1130B90826089BF089581B18E7F81B981B18D7FD3
S1130BA081B98CE080B986B7846086BF089586B722
S1130BB0806286BF86B7806886BF06B607FEFDCF13
S1130BC081B1887F883011F480E0089581E0089530
S1130BD086B7806286BF86B7806886BF06B607FE82
S1130BE0FDCF81B1887F803111F480E0089582E0E7
S1130BF00895880F83B984E886BF06B607FEFDCF43
S1130C0081B1887F883111F480E0089583E00895EC
S1130C10880F83B983B1816083B984E886BF06B63F
S1130C2007FEFDCF81B1887F803411F480E0089500
S1130C3084E0089583B986B7806886BF06B607FE48
S1130C40FDCF81B1887F883211F480E0089585E07A
S1130C500895FC01892B71F096B7906496BF06B68F
S1130C6007FEFDCF91B1987F903531F483B1808335
S1130C7080E0089588E0089586E0089586B780614D
S1130C8086BF86B7806886BF08950F931F93CF935E
S1130C90DF93082FC92F162F0E94D705811102C098
S1130CA0D0E001C0D1E08C2F877080650E94F905E7
S1130CB08111D3E0802F0E941A068111D3E0812F85
S1130CC00E941A068111D5E00E943E0683EC99E049
S1130CD00197F1F700C000008D2FDF91CF911F9194
S1130CE00F910895FF920F931F93CF93DF93F82EE4
S1130CF0C92F8B010E94D705811102C0D0E001C029
S1130D00D1E0C770C0658C2F0E94F9058111D3E032
S1130D108F2D0E941A068111D3E00E94E8058111EB
S1130D20D2E08C2F0E9408068111D4E0C8010E94F1
S1130D3029068111D5E00E943E068D2FDF91CF91C7
S1130D401F910F91FF9008950E94B8060C94A0077C
S1130D500E94990758F00E94920740F029F45F3FDF
S1130D6029F00C94890751110C94D4070C948F0723
S1130D700E94B10768F39923B1F3552391F3951BAE
S1130D80550BBB27AA2762177307840738F09F5FA8
S1130D905F4F220F331F441FAA1FA9F335D00E2E15
S1130DA03AF0E0E832D091505040E695001CCAF782
S1130DB02BD0FE2F29D0660F771F881FBB1F261745
S1130DC037074807AB07B0E809F0BB0B802DBF011C
S1130DD0FF2793585F4F3AF09E3F510578F00C94EB
S1130DE089070C94D4075F3FE4F3983ED4F38695C7
S1130DF077956795B795F7959F5FC9F7880F911D0C
S1130E009695879597F90895E1E0660F771F881FF7
S1130E10BB1F621773078407BA0720F0621B730BAA
S1130E20840BBA0BEE1F88F7E09508950E941D0706
S1130E306894B1110C94D40708950E94B90788F0FE
S1130E409F5798F0B92F9927B751B0F0E1F0660F8A
S1130E50771F881F991F1AF0BA95C9F714C0B130CB
S1130E6091F00E94D307B1E008950C94D307672F43
S1130E70782F8827B85F39F0B93FCCF386957795FA
S1130E806795B395D9F73EF49095809570956195E3
S1130E907F4F8F4F9F4F0895E89409C097FB3EF40E
S1130EA090958095709561957F4F8F4F9F4F9923B3
S1130EB0A9F0F92F96E9BB279395F6958795779531
S1130EC06795B795F111F8CFFAF4BB0F11F460FFF1
S1130ED01BC06F5F7F4F8F4F9F4F16C0882311F049
S1130EE096E911C0772321F09EE8872F762F05C05D
S1130EF0662371F096E8862F70E060E02AF09A95F8
S1130F00660F771F881FDAF7880F9695879597F9EC
S1130F10089597F99F6780E870E060E008959FEF77
S1130F2080EC089500240A9416161706180609067C
S1130F30089500240A94121613061406050608954B
S1130F40092E0394000C11F4882352F0BB0F40F4D3
S1130F50BF2B11F460FF04C06F5F7F4F8F4F9F4F13
S1130F60089557FD9058440F551F59F05F3F71F095
S1130F704795880F97FB991F61F09F3F79F08795FC
S1130F800895121613061406551FF2CF4695F1DF85
S1130F9008C0161617061806991FF1CF8695710515
S1130FA0610508940895E894BB2766277727CB0149
S1130FB097F908950E94ED070C94A0070E949207E8
S1130FC038F00E94990720F0952311F00C948907BA
S1130FD00C948F0711240C94D4070E94B10770F36A
S1130FE0959FC1F3950F50E0551F629FF001729FCA
S1130FF0BB27F00DB11D639FAA27F00DB11DAA1FD9
S1131000649F6627B00DA11D661F829F2227B00D25
S1131010A11D621F739FB00DA11D621F839FA00DB0
S1131020611D221F749F3327A00D611D231F849F00
S1131030600D211D822F762F6A2F11249F57504057
S11310409AF0F1F088234AF0EE0FFF1FBB1F661FD2
S1131050771F881F91505040A9F79E3F510580F09B
S11310600C9489070C94D4075F3FE4F3983ED4F3BF
S1131070869577956795B795F795E7959F5FC1F73F
S1131080FE2B880F911D9695879597F90895052E47
S113109097FB1EF400940E945E0857FD07D00E943F
S11310A0660807FC03D04EF40C945E0850954095F6
S11310B0309521953F4F4F4F5F4F08959095809500
S11310C0709561957F4F8F4F9F4F0895A1E21A2E1F
S11310D0AA1BBB1BFD010DC0AA1FBB1FEE1FFF1FD8
S11310E0A217B307E407F50720F0A21BB30BE40B28
S11310F0F50B661F771F881F991F1A9469F760956F
S11311007095809590959B01AC01BD01CF01089528
S1071110F894FFCF7D
S1131114120F0102030405060708090A0B0C0D0E3D
S11311243F065B4F666D7D077F6F0018191A3900FF
S11311343600330030003B003800350032003A00FA
S109114437003400310005
S9030000FC
